:1000000049C0000065C0000063C000009BC1000043
:1000100001C200005DC000005BC00000C3C0000062
:1000200029C1000055C0000053C0000051C00000AD
:100030004FC000004DC000004BC000000C94A1094F
:1000400047C0000045C00000A0C6000041C000003D
:100050003FC000000C94670A0C948F0A39C000005E
:1000600037C0000035C0000033C0000031C00000C0
:100070002FC000002DC000002BC0000029C00000D0
:1000800027C0000025C0000023C0000021C00000E0
:100090001FC0000011241FBECFEFD0E1DEBFCDBFD7
:1000A00011E0A0E0B1E0E4E7F6E100E00BBF02C040
:1000B00007900D92A030B107D9F721E0A0E0B1E0A0
:1000C00001C01D92A834B207E1F7BAD40C94380BE2
:1000D00097CFECE7F0E09081907C8770892B80834C
:1000E000EAE7F0E0808180648083808186FDFDCF37
:1000F000809178002091790090E0922B089582E021
:10010000E8CF089583E0E5CF0895CF93C82F79D342
:1001100080EC84D380E082D38C2F80D37BD3CF91AB
:100120000895882349F06091040170910501809140
:1001300006019091070108956091000170910101FD
:10014000809102019091030108958DB383738DBB5B
:100150008DB18F738DB98AB1837F8AB98EB1806C6E
:100160008EB98BB18C608BB9109200011092010195
:1001700010920201109203011092040110920501E5
:100180001092060110920701EAE6F0E08081806596
:100190008083E9E6F0E08081806580838DB38C6C9C
:1001A0008DBB08951F920F920FB60F9211248F935B
:1001B0009F93AF93BF938CB186FF2AC08823A4F48A
:1001C0008091000190910101A0910201B091030181
:1001D0000196A11DB11D8093000190930101A09390
:1001E0000201B09303013DC0809100019091010193
:1001F000A0910201B09103010197A109B109809377
:10020000000190930101A0930201B093030129C062
:100210008823A4F48091000190910101A091020132
:10022000B09103010197A109B10980930001909356
:100230000101A0930201B093030113C0809100015A
:1002400090910101A0910201B09103010196A11DBD
:10025000B11D8093000190930101A0930201B0931E
:100260000301BF91AF919F918F910F900FBE0F909F
:100270001F9018951F920F920FB60F9211248F9313
:100280009F93AF93BF938CB1882354F586FF14C01E
:100290008091000190910101A0910201B0910301B0
:1002A0000197A109B1098093000190930101A093E6
:1002B0000201B09303013DC08091000190910101C2
:1002C000A0910201B09103010196A11DB11D80937F
:1002D000000190930101A0930201B093030129C092
:1002E00086FF14C08091000190910101A09102014C
:1002F000B09103010196A11DB11D8093000190935F
:100300000101A0930201B093030113C08091000189
:1003100090910101A0910201B09103010197A109FF
:10032000B1098093000190930101A0930201B09361
:100330000301BF91AF919F918F910F900FBE0F90CE
:100340001F9018951F920F920FB60F9211248F9342
:100350009F93AF93BF9389B182FF2AC083FF14C0DC
:100360008091040190910501A0910601B0910701CF
:100370000196A11DB11D8093040190930501A093E6
:100380000601B09307013DC08091040190910501E1
:10039000A0910601B09107010197A109B1098093CD
:1003A000040190930501A0930601B093070129C0B1
:1003B00083FF14C08091040190910501A091060172
:1003C000B09107010197A109B109809304019093AD
:1003D0000501A0930601B093070113C080910401A9
:1003E00090910501A0910601B09107010196A11D10
:1003F000B11D8093040190930501A0930601B09371
:100400000701BF91AF919F918F910F900FBE0F90F9
:100410001F9018951F920F920FB60F9211248F9371
:100420009F93AF93BF9389B183FF2AC082FF14C00B
:100430008091040190910501A0910601B0910701FE
:100440000197A109B1098093040190930501A0933C
:100450000601B09307013DC0809104019091050110
:10046000A0910601B09107010196A11DB11D8093D5
:10047000040190930501A0930601B093070129C0E0
:1004800082FF14C08091040190910501A0910601A2
:10049000B09107010196A11DB11D809304019093B5
:1004A0000501A0930601B093070113C080910401D8
:1004B00090910501A0910601B09107010197A10952
:1004C000B1098093040190930501A0930601B093B4
:1004D0000701BF91AF919F918F910F900FBE0F9029
:1004E0001F901895AF92BF92CF92DF92EF92FF923A
:1004F0000F931F93CF93DF93CDB7DEB72B970FB634
:10050000F894DEBF0FBECDBF6C01E6D0B82EC60199
:10051000E0D0A82EC601BDD0D82E84E1D81639F07F
:1005200086E1D81681F083E1D81212C007C01AE91B
:10053000E12E12E0F12E00E010E00DC0E0DD7C01C4
:1005400000E010E008C0DEDD7C0100E010E003C048
:10055000E12CF12C87012D2D4A2D6B2DCE0101961A
:100560006BD0CE0101963ED52B960FB6F894DEBF28
:100570000FBECDBFDF91CF911F910F91FF90EF90F4
:10058000DF90CF90BF90AF900895FF920F931F938D
:10059000CF93DF93CDB7DEB729970FB6F894DEBFC0
:1005A0000FBECDBF8C019BD08D309105A1F01CF406
:1005B000039741F035C0853F910581F1873F910553
:1005C000B1F02EC0C801F7D0F82EC801E9D0BC01A7
:1005D0008F2D1ED325C0C801F1D0F82EC801E8D058
:1005E000682F880F770B8F2D90E08FD619C0F801F8
:1005F0009481258186819F83988799872C832D8379
:100600008E8389838A838B83AE014F5F5F4FBE01E8
:100610006C5F7F4FCE010796AFD102C0C80162DF89
:1006200029960FB6F894DEBF0FBECDBFDF91CF91F4
:100630001F910F91FF900895BF92CF92DF92EF929A
:10064000FF920F931F93CF93DF93EC01B22E6701BC
:10065000780181E021D09983888388E08A838E01A4
:100660000D5F1F4F66EFC80127D0C80FD91FBB828F
:100670009C012F5F3F4FB701A601C80134D0DF9125
:10068000CF911F910F91FF90EF90DF90CF90BF908F
:100690000895FC01868108956F7090E4699FB00110
:1006A00011244F73642B8170382F330F330F20E0E8
:1006B000CB01822B932B0895CF93DF93EC016883BA
:1006C0006FD589836AD58A8383E090E0DF91CF91EB
:1006D0000895FC0185810895FC0184810895FC0141
:1006E000838190E00895FC01E20FF31F7083618322
:1006F000528343830895CF92DF92EF92FF92CF937C
:10070000DF93141615069CF47723A4F0EA01C61BA8
:10071000D70B2196C530D10514F0C4E0D0E0DD231D
:1007200014F4C0E0D0E01C161D0634F02DC0C4E067
:10073000D0E002C0C4E0D0E0DC01A60FB71F9E01EC
:1007400021503109220F331F220F331F220F331F75
:10075000E0E0F0E0C12CD12C76014D9150E0022E6A
:1007600002C0440F551F0A94E2F7052E000C660BD9
:10077000770BC42AD52AE62AF72A31962850310960
:10078000EC17FD0754F303C0C12CD12C7601C7012F
:10079000B601DF91CF91FF90EF90DF90CF90089559
:1007A00042E050E061E070E00396A5DFCB010895E0
:1007B000FC0185810895FC0186810895FC018481F6
:1007C00008951092B9009C0140E050E060E87EE39B
:1007D00080E090E00ED7BA01A901405151096109AA
:1007E0007109DB01CA011AF40196A11DB11DB5956D
:1007F000A795979587958093B80084E08093BC0077
:10080000089584EA8093BC00ECEBF0E080818823BB
:10081000ECF7089584E98093BC0008958093BB00B1
:1008200084E88093BC00ECEBF0E080818823ECF757
:100830000895811102C084E801C084EC8093BC005B
:10084000ECEBF0E080818823ECF78091BB00089509
:100850008330E0F46430D0F494B1906C94B99B9AF6
:10086000880F23E030E0082E02C0220F331F0A94C5
:10087000E2F7209590910801292370E002C0660FED
:10088000771F8A95E2F7622B609308010895CF9352
:10089000DF932091080121110AC0A39885B18F73BD
:1008A00085B967C04F5F5F4F6F5F7F4F0BC061E0DF
:1008B00070E040E050E0DC01A370BB27C8E0D0E46A
:1008C000817099272091080130E0FA01EE0FFF1F97
:1008D00002C035952795EA95E2F72370213091F013
:1008E00028F0223019F12330A9F13FC041155105FC
:1008F00011F42E98D7CF4130510511F42F98D2CF53
:10090000A39833C01097A9F54115510521F425B1DD
:100910002D2725B9C7CF4130510521F425B12058E5
:1009200025B9C0CF24B32C2724BB1FC0009709F5DD
:100930004115510521F425B12D2725B9B3CF4130FB
:10094000510521F425B1205825B9ACCF24B32C276B
:1009500024BB0BC04115510511F42E9AA3CF413091
:10096000510511F42F9A9ECFA39A633071050CF4B0
:1009700099CFDF91CF910895CF93DF93F894FC0145
:10098000C62FD72FA42FB52FBC016D5F7F4F31919C
:1009900049912D9198E0542F5078A49A440F5523F3
:1009A00009F436C000000000000000000000000054
:1009B0000000A4980000915071F798E0432F407810
:1009C000A49A330F442309F42AC000000000000059
:1009D0000000000000000000A4980000915071F792
:1009E00098E0322F3078A49A220F3323F9F00000D8
:1009F000000000000000000000000000A4980000BB
:100A0000915079F7E617F70709F0C1CF789415C030
:100A1000A49800000000000000000000CBCFA498C4
:100A200000000000000000000000D7CFA4980000E4
:100A30000000000000000000E2CFDF91CF91089598
:100A4000CF93DF93CDB7DEB766970FB6F894DEBFCE
:100A50000FBECDBF80E18AB98BB980E484B985B976
:100A600090EF92B99C9A15B889838A838B831C82F4
:100A70001D821E82C5D48DE491E0A3DEF894AE0100
:100A80004C5F5F4FBA01CE01019676DF2FEF81EE0A
:100A900094E0215080409040E1F700C00000AE019A
:100AA0004C5F5F4FBA01CA0167DF80E02EDB1BB8E5
:100AB00078949FE088E10FB6F894A8958093600041
:100AC0000FBE9093600080B190E0809590959595D1
:100AD00087959595879595958795959587958F7029
:100AE000682F70E087E090E075D20AD458D00F2EBE
:100AF000F8E2CF2ED12CE12CF12CF02DCE0107966F
:100B0000B9D2892B79F463E080E0A2DE9BD4A701FF
:100B100096014DD5C901BBDECE01079636DD60E0FA
:100B200080E096DE9ED081E0FCDA7E8B6D8B8D8935
:100B30009E8999230CF44F96959587959595879561
:100B40009595879595958795959587958A8B8D89A8
:100B50009E8999230CF44F96959587959595879541
:100B60009595879595958795959587958B8B8D8987
:100B70009E8999230CF44F96959587959595879521
:100B80009595879595958795959587958C8BAE01CD
:100B90004E5E5F4FBA01CA01EFDEA895AFCFCF938B
:100BA000DF938DB188638DB984B1886384B9C9E05E
:100BB000D1E01982188260E070E083E0F4D21B82F9
:100BC0001A8260E070E084E0EED21D821C8260E058
:100BD00070E085E0E8D2B9DADF91CF9108958330F3
:100BE000B0F421E030E0611102C020E030E08D5F20
:100BF000A90102C0440F551F8A95E2F7CA0195B1B9
:100C0000282F2095922395B995B1892B85B9089500
:100C1000CF93DF93833010F5262F372F21309CEFB1
:100C2000390714F421E03CEFC82FD0E0FE01EE0FAD
:100C3000FF1FE75FFE4F211584E0380714F02FEF08
:100C400033E031832083FED3CC0FDD1FCC0FDD1FBB
:100C5000C15FDE4F688379838A839B83DF91CF9165
:100C600008958F929F92AF92BF92CF92DF92EF92B0
:100C7000FF920F931F93CF930F2EFFE0EF2EF1E023
:100C8000FF2EF02D09E011E0C0E0DCD3F7018190E8
:100C90009190A190B1907F01DC01CB018819990955
:100CA000AA09BB09813D9740A105B10530F0F801C3
:100CB00011821082C12CD12C0CC0F801C080D180CF
:100CC000DD203CF461E08C2F8ADFD194C194D108FF
:100CD00003C060E08C2F83DFB60183E08C0F63D20A
:100CE000CF5F0E5F1F4FC33081F6CF911F910F91E1
:100CF000FF90EF90DF90CF90BF90AF909F908F903C
:100D00000895883080F4EEEDF0E0408121E030E09D
:100D1000B90102C0660F771F8A95E2F7CB01809573
:100D2000842380830895EFEDF0E04081885021E036
:100D300030E0B90102C0660F771F8A95E2F7CB0158
:100D40008095842380830895883078F4EEEDF0E078
:100D5000408121E030E0B90102C0660F771F8A951B
:100D6000E2F7CB01842B80830895EFEDF0E0408122
:100D7000885021E030E0B90102C0660F771F8A95E4
:100D8000E2F7CB01842B808308951F920F920FB658
:100D90000F9211240BB60F922F933F934F935F93B3
:100DA0006F937F938F939F93AF93BF93CF93EF9363
:100DB000FF93C091ED008091EC00807F803FA1F116
:100DC0008091EC0082958F7090E1899F90011124B1
:100DD0002093ED009091EE0096FF08C0EEEEF0E05B
:100DE000908110821092EF00AFDF22C090911E011F
:100DF0009F5F90931E01E82FE695E695E695F0E05B
:100E0000E45EFE4F9081482F477021E030E002C041
:100E1000220F331F4A95E2F7292B2083EEEEF0E0F4
:100E2000908110826EDF04C0EAEDF0E08081808363
:100E3000C093ED00FF91EF91CF91BF91AF919F9142
:100E40008F917F916F915F914F913F912F910F9073
:100E50000BBE0F900FBE0F901F9018959C0133276B
:100E600022953295307F3227207F32272093ED0064
:100E70009C01215031092230310540F480911F013D
:100E800020E4829FC00111248F630FC00397029753
:100E900050F480911F0120E4829FC0011124209111
:100EA0001B01822B02C08FE390E01092F40010929D
:100EB000F5001092F0001092F100282F2295220FD9
:100EC000207E2093F200887F97709695879596955F
:100ED0008795969587958093F30080EE8093F60032
:100EE0008FE78093F7000895DF92EF92FF920F93C0
:100EF0001F93CF93DF93E8EDF0E0908191609083B2
:100F000040931F0120931B012FEF31EE94E02150FD
:100F100030409040E1F700C000008093E200709301
:100F2000E3006093E40080EB8093DB008FEF80931D
:100F3000E500ECE1F1E011821082C0E0D0E00FEEBC
:100F400010E00F2EFEEEEF2EF12CF02D6894DD2434
:100F5000D7F8C53050F4F70180811082CE017EDFD2
:100F6000F801D0828C2FF0DE02C0F80110822196A9
:100F7000CF30D10571F710921E0182E08093D80026
:100F8000DF91CF911F910F91FF90EF90DF90089527
:100F90001092ED008091EF00807C99F021E030E02C
:100FA000ADEEB0E0EFEEF0E0822FA9014295529550
:100FB000507F5427407F54274C939081907C19F4A4
:100FC000089580E008952F5F3F4F2F30310561F77E
:100FD0008FEF08959B01AC0163E174E08EE190E036
:100FE00083CF0895CF93DF93EC01D2DF8F3FE9F1F8
:100FF00090E1899F900111242093ED00EEEEF0E046
:10100000908110829A819F709093EF009A8199232A
:1010100069F0FE01339690E0AAEFB0E021912C93A5
:101020009F5F2A81921710F49830C1F71092F00058
:101030001092F10098819295990F907E9093F20012
:1010400028813981287F37703695279536952795E1
:10105000369527952093F300EFEEF0E090819064B1
:10106000908372DE80E090E002C082E090E0DF9149
:10107000CF9108951F93CF93DF93009709F481C018
:1010800020911E01222309F47FC01092ED002091CF
:101090001C0120FD25C021E030E0ADEEB0E0122FB4
:1010A000A90142955295507F5427407F54274C9375
:1010B00023FB662760F970E0FB01E45EFE4F408190
:1010C00050E0E22FE77002C055954795EA95E2F7A8
:1010D00040FD07C02F5F3F4F2F30310501F757C04C
:1010E00010E02091EF002F70FC0122833091F2007C
:1010F0004091F30032953695377050E0440F551FFC
:10110000440F551F440F551F432B51834083222307
:1011100091F03396215030E02C5F3F4F280F391F5C
:101120000B96AAEFB0E04C914193E217F30719F048
:101130008E179F07C1F7F89480911E01815080930C
:101140001E017894812F90E089DE812FFDDD13FB55
:10115000FF27F0F9CF2F80E0D82FC45EDE4F288123
:10116000177081E090E002C0880F991F1A95E2F78E
:1011700080958223888380E88093EF0080E090E070
:1011800008C082E090E005C081E090E002C081E00C
:1011900090E0DF91CF911F91089580911B010895F8
:1011A00080911F0108957370843071F08530B1F023
:1011B0008330E9F4E0E9F0E0808180688083709317
:1011C0009900609398000895E0E9F0E080818062E2
:1011D000808370939B0060939A000895E0E9F0E0AB
:1011E00080818860808370939D0060939C00089547
:1011F000CF93DF93D82FC62F04DB80E80FDB8D2F32
:101200000DDB8C2F0BDB06DBDF91CF91089560E8BF
:1012100080E0EEDF8FE39CE90197F1F700C000006A
:1012200060E180E0E5DF8FE39FE10197F1F700C027
:10123000000060E080E0DCDF8FE39FE10197F1F7E1
:1012400000C0000008950F931F93CF938C01D9DA4B
:1012500081E8E4DA80E0E2DAD4DA80E0EADAC82F82
:10126000D9DA6C2F6F76606180E0C2DF8FE39FE197
:101270000197F1F700C00000980140E050E067EDF1
:1012800077E180E090E0B5D16FEF620F8EEFB0DFD5
:101290006C2F80E0ADDF8FE39FE10197F1F700C095
:1012A00000006C2F606880E0A3DF8FE39FE101976F
:1012B000F1F700C00000CF911F910F9108950F9397
:1012C0001F93CF93DF93EB01082F000F000F609562
:1012D00086E0800F8DDF8FEF9FE08C1B9D0B692FC9
:1012E00087E0800F85DF802F6C2F885F81DF6D2F77
:1012F00089E0800F7DDFDF91CF911F910F910895DD
:1013000086DF82E390E09FCF08959C01643B7105E6
:1013100014F063EB70E01616170614F061E070E04D
:101320002330310568F433E6369FC001379F900DB6
:1013300011246CEA70E028D16A597F4F822FBFCF09
:1013400008951F920F920FB60F9211240BB60F92B1
:101350002F933F934F935F936F937F938F939F93BD
:10136000AF93BF93EF93FF9380912101909122015E
:10137000A0912301B09124010196A11DB11D80937C
:10138000210190932201A0932301B0932401809125
:10139000210190912201A0912301B0912401877035
:1013A0009927AA27BB27892B8A2B8B2B49F480915D
:1013B000210190912201A0912301B091240167DACB
:1013C0008091210190912201A0912301B0912401EB
:1013D00080FD03C081E080932001FF91EF91BF91D8
:1013E000AF919F918F917F916F915F914F913F91BD
:1013F0002F910F900BBE0F900FBE0F901F9018955E
:1014000083E484BD8BE18093810093E0909380001E
:1014100020E137E230938900209388001092850004
:101420001092840081E080936F00909390008093ED
:10143000910010922101109222011092230110922A
:1014400024010895CF92DF92EF92FF9220918400C1
:10145000309185008091210190912201A09123017A
:10146000B0912401880F991FAA1FBB1F880F991FD5
:10147000AA1FBB1F880F991FAA1FBB1F6C017D01EC
:10148000CC0CDD1CEE1CFF1CCC0CDD1CEE1CFF1C70
:10149000C80ED91EEA1EFB1E36952795A3E1B3E8B8
:1014A000C4D00024880F991F001C880F991F001CAE
:1014B000892F902DA7019601280F391F411D511D1D
:1014C000CA01B901FF90EF90DF90CF9008951F926D
:1014D0000F920FB60F9211240BB60F928F93EF93CA
:1014E000FF9380913601813120F080E180933601B5
:1014F0000CC0E091360181E08E0F80933601F0E060
:101500008091C600E95CFE4F8083FF91EF918F913F
:101510000F900BBE0F900FBE0F901F9018951F924B
:101520000F920FB60F9211240BB60F928F939F93C9
:10153000EF93FF93E091470181E08E0F8093470185
:10154000F0E0EB5DFE4F80818093C60090914701F3
:1015500080913501981720F480914701813148F03E
:10156000E1ECF0E080818F7D808310923501109254
:101570004701FF91EF919F918F910F900BBE0F90BC
:101580000FBE0F901F90189597FB072E16F400942E
:1015900006D077FD08D058D007FC05D03EF49095D2
:1015A00081959F4F0895709561957F4F0895A1E2B1
:1015B0001A2EAA1BBB1BFD010DC0AA1FBB1FEE1FCD
:1015C000FF1FA217B307E407F50720F0A21BB30B18
:1015D000E40BF50B661F771F881F991F1A9469F794
:1015E00060957095809590959B01AC01BD01CF01F0
:1015F0000895052E97FB16F400940FD057FD05D0E3
:10160000D6DF07FC02D046F408C0509540953095CF
:1016100021953F4F4F4F5F4F08959095809570955E
:1016200061957F4F8F4F9F4F0895A29FB001B39F49
:10163000C001A39F700D811D1124911DB29F700DDB
:10164000811D1124911D0895AA1BBB1B51E107C0E8
:10165000AA1FBB1FA617B70710F0A61BB70B881F42
:10166000991F5A95A9F780959095BC01CD010895D1
:04167000F894FFCF1C
:00000001FF
