:100000000C9405140C9423140C9423140C94611573
:100010000C94C9150C9423140C9423140C9491146F
:100020000C94F9140C9423140C9423140C9423149E
:100030000C9423140C9423140C9423140C944D1D31
:100040000C9423140C9423140C94711A0C94231400
:100050000C9423140C94131E0C943B1E0C94231428
:100060000C9423140C9423140C9423140C94231434
:100070000C9423140C9423140C9423140C94231424
:100080000C9423140C9423140C9423140C94231414
:100090000C94231478798184888B8984827E7A7782
:1000A000757A7F82888A88867F7C7B7B7E81848745
:1000B000898887847C78747C8284898887817D7F25
:1000C0008083878A8F92959392948F8984858B8C75
:1000D0008F8F8E8983817F84868B92919088808197
:1000E0007B7772747D7F82868681777171747A7D69
:1000F0007F838684817F7F786E6D6C7275797B7863
:1001000077737072747675767A7C7F827F807F7663
:100110007472797C7E84827E78747473787D7E8339
:100120008686868480797C76707071797B83847F03
:100130007D77777B818381838887898C8D8A8C8A80
:10014000807C797F81868A8B8C878989898D8A8B4F
:100150008E929392948D898D8581808086878A87FF
:10016000868583848283817F8384878381837F7C68
:100170007C766D64626B6C6F6E70706D6F7278748C
:1001800073767E838485848285857C7673777B7B9A
:100190007B7D7E787A7B7C7F8284868B9094948F23
:1001A0008B8A807C787A84878B888A888485848906
:1001B0008482878F9792908F8F88797573787B7EF2
:1001C00083807A757375777A7D7D818A8F8E8B882F
:1001D0008A8178787A808080817B7773727472727A
:1001E00074787E8586858482786F6C717474777577
:1001F000726D6B6F7478797B7E878A8683817B7161
:1002000070788287898C897E737477797A7A7C8515
:100210008D8A88857C726C75828B8D8D8A837E7EBB
:10022000808587878B9598908E8C83736D77858E6C
:100230008E8B8B8580808589898B8D949694908612
:1002400076676978878B8E90897D77777B7D7E83D3
:10025000909A9C9A92836E636B7D8687898980745D
:1002600070757B777583929088837B6D666B767FE4
:1002700082828079716C6F737376828D8C88837AB9
:100280006C6169777E7D7F7E79706D73797878890E
:10029000908B857E776B69727E878986837D787384
:1002A0007479777D8E97968D857C71707C888E9120
:1002B0008E877C75767774748491928D857B73724A
:1002C0007A848B8B8885817F7A7B7C7B8491938FEA
:1002D000887D726E748188898784817A78787D7E42
:1002E00087999E97877B726F77838E93918C847B9F
:1002F0007A7674777E8D918F8779706D757E85891A
:100300008A87807A767472727A858B897F71676644
:10031000717F888C89857E78736D6D6F7D8C918DF2
:1003200082776C6A737E858786847E7B7A7572732A
:100330007F9199988C7F7571758088878787848174
:100340007B7472727A8B98978B786C6C737C8588CF
:10035000888582807F797878828E928E7F71686DB1
:1003600077838B8A878586868177706F7C8D979659
:1003700086787275808A8B898A8C90908C857B793F
:1003800085979D9786777477818A8A827C7B7B7A32
:100390007A7470717F8D90897264636D7A818481C3
:1003A0007C7A797773706F798D97988A74656774A2
:1003B000828887827D7C808178737178899292822D
:1003C0006B6264717F84827C7C7F8381776F6F7CBA
:1003D0008F9595856F666B7B898F8B86858A8A86DC
:1003E0007D77767E909796826F676C7E8A8F8E8AF5
:1003F00087898883786E70839AA6A48E7C747888A7
:1004000092938E8C8A8B8B84766F6F82989F977E67
:100410006E66707C81817B7A7A82817B6D64697E75
:100420008D8D80655455687982817F7C8084827847
:100430006B6A77929E9F8C706772828C8E878280A7
:100440008A8F877B72738AA2A49E83686876899458
:100450008F8A878A9493897D787C95A49F8E6B5B25
:100460006577878B827B7C83868172625D6F8B93DD
:100470008E7558576878817B7170747F83796C664C
:100480006782968E7B595164798C8D8078797F82D2
:10049000807168677A9D9F90735B64788789817E9D
:1004A000808B949185716C7897A3967D5E5C758D39
:1004B00091897E7982908D82736C6F8DA99B8669FC
:1004C00061748D9B9483787A888A81766A6D82A123
:1004D0009E89695768879E9B8D83808F9A918171D1
:1004E0006E789BA692765D69859D9F8D817C899CA7
:1004F00094877A7781A2B09978535B7C96A18E7BA2
:10050000747C918F806F687392AB9A795453728B1D
:1005100098876E676C7C8072605A64829E8D694099
:1005200038597B8E81675E64798176675C6483A2CB
:100530009875473A5B7B9493786C73858A7B685C8B
:100540006582A9A98B5F4E6E89A0A2867C83989E46
:100550008A786C748CB2B692654B65859BA48F804B
:10056000859AA5907D757A8FB0BA9C6D4E648498FB
:10057000A29186899BA991796A6B82A5BBA87958BB
:100580006683969F8C7B8094A08E7564667496AC0F
:100590009B6F424B7185908476748297866A5A5E0F
:1005A0006E8CA99B724B4E73868E85706E7A8A8193
:1005B0006856596A8DAEA07C53507487928D7A78B4
:1005C000859B947A65677692B4A97E504D748C9918
:1005D00099877D8CA59E826E727D99BAAD835452A7
:1005E000788B97917F78859D937660606F90B2A3AA
:1005F0007748476D828A7F7374839C8E725E5B6AD4
:100600008FAA966336436B7A8278696B7F978B6E7D
:100610005A5C719CB0965F405E83989E8B818798F0
:10062000A4917461637FADB9935F49688D9E9E8785
:10063000808FA2AA957561678DBCBA8E625F859B1B
:10064000A69F837E90A4A389706677A0C5B17B5ACC
:1006500062869DA58F747F96A399816B647DACBEE5
:100660009763506B8A9A987865799595826F5D55F6
:1006700076A8A26A363B5F7385806565879B897023
:100680005F535485AE8F5538526D78847354628DA4
:1006900094806E61586EA8B57B4A517687959A7A98
:1006A0006687ABA0816F615B83B9AB6544627E8B6B
:1006B0009B916E6F9DB2997B6E6771ADCB974E4CDF
:1006C0007B89939A80677DA9AD8C756E6483BEB17A
:1006D000683B5E868A95977A729AB8AA84746A6F24
:1006E000A9CBA0565389979C9D8A6F7AA6A88D7234
:1006F0006B6683BFB26435608686887F6D5F86A334
:100700008F74625C629CB881353C757A7D7E7060C6
:100710006B969679625C5979AF9C50306686858D70
:1007200083717291AC9574696776A9C1833F5383D5
:10073000898F8E82798DB1AD8F6F6C7292C4A95EF4
:10074000467896909389777394A38F705C6775ADA4
:10075000BC773952898D8E8B807082A29E866964A7
:100760006D99C8A25543788B8588827376999F903E
:1007700070636172B0B06735618E8687857A728DDD
:10078000A4967E66616597C68E414D86897B827B85
:100790006E7F9594806E646582B6A64434789386A5
:1007A0008380737B97998D7F736F7EB2C37039702E
:1007B000A29383837A7D98A293877B71749CC5876B
:1007C000304E949D88807F82949C9182786D678B57
:1007D000C2A842357F9E8C76727688988F84746A20
:1007E0006678AFBA632B659E9F8576727E938F8500
:1007F0007969607099C089293E7F97846B686F8E94
:10080000928A8877676388B6AB4A2C6E9596776B29
:100810006E859B8F8B7C695F78A6BB7928558C9DF4
:100820008F7574799B988F8A726C729AC4A33B3CC3
:1008300085A09E7C70708FA0918D7E695F84ACB71F
:100840005C206697A5867371849C94907C6B616D27
:10085000A4C48B2A4491A191716E7490968B8B7E67
:100860006A6893C3B548337CA19F7F797C959F9438
:1008700095856F5E7DADBF72245E949D806D767FA1
:100880009B95938E79646B94BF982F4589A18F7146
:100890007478898584887D656482B2B34627759CA7
:1008A000997C747B899589928A706476A5BE722B37
:1008B0005E939F8A797D8E9A9696927F697698C488
:1008C00093364E8CA28B76717C8F8D86898069657C
:1008D0007CAB9C362D73928D746D74888A7C7F8876
:1008E000706277A0AD4C1E598E927A727B8C938683
:1008F0007D877D65709DC2832F5C90998873767F1C
:1009000093887A7F836D6988B695384781A1957FF2
:100910007C849893807B8B77667CAAAD4B387697E6
:100920009A7B757D9497817B8C84707FA9BC6133A1
:1009300072A2A38C7B7D959C8A7889876F7B98BFF8
:100940007B2E5A8C96847672869989767F826D6E1C
:100950008ABC892D4A8D95857B7283938A6C7386B8
:10096000767184B69A3B4B87938478727E99917D99
:10097000798F7F7884ADAE48477D978D8780839F40
:100980009C8A7A918A7E86AAAD523B7994878B7F26
:10099000849D9C846E8682777597A74E356C8B827A
:1009A000837D768C8E7E6675806C748DA45F3267D5
:1009B0008582797B778D92816B6B766D7990AD7145
:1009C00032628F847779798F92837171817B7F9A7C
:1009D000B97A3662918C7C7B7B8F9B88756D7F7337
:1009E0007A86A28C384F7180757676859D9182715A
:1009F000807B8288A6A8504A83968B857D88A29C9E
:100A000088707D797D8CA6B96248859D8A827F86B3
:100A1000A8A48E7C8A887C889BC0743F7C998F8434
:100A2000827E9C9F8B79797F778791BC8032699198
:100A3000827779708E9A8972717D6F8085A88B34E8
:100A40005B88837A7B6A80998D7B6B817A8285A4AF
:100A5000983F4B848D7B7F788BA497847581797DBB
:100A600084A1A64C45848F7978738099917C6D78A8
:100A70007578819AB15E3674907F717181A08F7B99
:100A8000717F7572758BB55D2A7A9C6E6C78889AC9
:100A9000847A838A76707C92BD721F77A3686B8399
:100AA00084998C7A7F8775677C88B2892262A36C6F
:100AB00065828197958386867D667A83A1A3395165
:100AC000AD8064898597A382818C8A70768CA2BD63
:100AD0005B37A19664808893A4897E8B957B738C09
:100AE00095BD7F3185A66B71888BA28F7D8893829F
:100AF00069818DB0972F5BAA78617B85998D737919
:100B00008D89646E889AA946399F8B5E75858F940E
:100B1000726F888F6C6C8D94B66824819C5E67813F
:100B20008D9E7F6C7F94745B7683B38A1D62AA6A04
:100B30005C8086978A6C7B97835D7683AAA1254A21
:100B4000B17C5376818F8D6972918E666A899BB66E
:100B50004E2EA69B5C778E94A3817693A07B6C8AA5
:100B60009BC075248BB3696B8F94A48C758AA28CFF
:100B7000648495B990226BBC735B888F9A8D677B78
:100B80009989646F8AAAA92C45B383587381939479
:100B90006C7290926767869BB44C29A19D586F84B4
:100BA000909E756F929E7B6A8A9CB6782382AF6511
:100BB0006A8B94A38B6F8A9C80617F89B290216439
:100BC000B370568384978B6A769886637377A8A6EA
:100BD0001C37B68052758798966D6F968D62717BC3
:100BE0009CBB352AAA95517890929D7573968F6A11
:100BF000787693C85627A3A85B75888BA47A7193DF
:100C0000947F7B7A99C95D2594A8606F8786A379C4
:100C10006D8A8E79767190C55C2991A65B708D89FD
:100C2000A07F719286747E738AC4612293A45F75DB
:100C30008F84A185718D8175897780CC6A1E90A380
:100C40005D748E82A186738A7E6F8B7F83CD7023C5
:100C50008DA3537490809E86799880688D827AC423
:100C6000732999AC587098859D7F77A2895B888C91
:100C70007ABD5F2598A450789C899B7B7197814DA4
:100C8000848A7AB65E2095984274967997826D969A
:100C9000824F887F6EBE5E1F949C4475957C948ABB
:100CA00070958A5589857AC0661E9FA94C7598846F
:100CB000998A759A915D8C8B83C4692AA0AE53780A
:100CC0009B8B9B8E779E8F5F888F8ABA6432A6A09B
:100CD0004E799E82988D799B90597C8B86B3553244
:100CE000A59D4B769A7E948474978756788487AFB7
:100CF0005230A0944A7C93788E8272957F55837F80
:100D00008BB84E3AAB934B7F9D85927E7A9E8153F2
:100D100086848EBD4E39AE924A7D917C8D7F799CC2
:100D2000855B8C8189BC4738AD8F4E88987E927FD9
:100D3000779D815C8D8090BF4A3AB68C48869B81B6
:100D4000948078A0815E85788CC64531B191487ECB
:100D5000967D967A759D815D8A7D90C74B34B2925F
:100D6000447F957F957A729D805885788CC4492FF1
:100D7000B0924480987D937A73A18360897F8FC3FA
:100D80004B2BAD93437B9A84977D76A78B5F8A83A9
:100D900090BF4B2FAE93437D9B84957776A4865A64
:100DA000818190C14D31AE95487D9B89997F79A411
:100DB000885F858393C35531AE974F7D9B89997E1C
:100DC0007CA2855E7E808ABE4C29A8994E76968844
:100DD00094756F9C82597D8089BF572AA99A4A7160
:100DE0008E8190746F9B8255788182BC561E9A9A30
:100DF0004B6C8F828F75709A8459787B7EB9591F9E
:100E00009BA3506E93879378789E8A617B8284C27D
:100E100060249BA654729D8C9C7F7AA38D64818AEA
:100E20008BCA762B9EAF5A739E919C8C80A4926A3B
:100E3000848785C97D2192B55C699C939B8A769B4A
:100E40009068798384C47A1A8EB55861948B9381A3
:100E50006C97915D717E79BB781582AF555F9084F8
:100E60008F7E68968D5C707F79BC7B0E81AE545A04
:100E70008E848E7F66938E62747F79BC76128BB37C
:100E80005561978793836A9C9162798C83C77C1D97
:100E900091B358649B8695836C9E925F7E877EC5D6
:100EA000831C8CB75769998692896D9C926079846E
:100EB00079BF7F1989B25A629987928D6E97946033
:100EC0007A8378BF801E88B45C689A84948970960F
:100ED00093667C8A7BC285208AB25A689785948AF9
:100EE0006E9A9466798D7CBE811991B159689E88FD
:100EF000958D6E988F60718579B97E1B8BB5536324
:100F00009D85928A6F95925F738677B7861883B4B2
:100F100053619982898B6C959364778871B38F182C
:100F200079B45F6098838C8D6A8E8D5E727F6FADB1
:100F3000921B6DB7605F92858D8A698E8D606F7E22
:100F400070B39C1B6EB96559938793906E959765A6
:100F50006F876EB9A7216EC76F5A968B8F946F9368
:100F60009E6D769275AFB21E68C47159978D899641
:100F7000708F9A6E6D8F74A8B12563C37158968C6B
:100F80008794728E9A6F6E8F73A3AF2457BE765379
:100F9000958A88966C8A9A706C8B77A1B6274EBF1B
:100FA000754F8C8B87936B849C6D6188729FB2297F
:100FB0004CBA7C4C908F87976F839C68618A739E34
:100FC000B22E43B77843888A809572849F6F638C72
:100FD0007197BA2E43BC854A868B7F96737FA07229
:100FE0006191739DC3363CB88D4C8790879C798204
:100FF000A677628E769DC63D3ABF924E8994889AB6
:101000007883A77A62907C96C73D36BC90498598D4
:1010100084987882A6785C8E7F90C64234B89245D8
:1010200082977F90777C9C78578C7A8FC0422CACCB
:1010300093437D927C927C7CA0785F8B7C8CCB4DA3
:1010400028B5994D7F967D947E799D7C5B907988BB
:10105000CF5225A8A5477A9A849E8077A18057868B
:101060007B80C7561AA7A94770987F937F739F8983
:101070005C858184C85F20A3AD4E729D8697817484
:101080009E8858867E7DCA661F9AB24F699B83935D
:101090008574A28C5E82857BC371148FAF57629674
:1010A0008690846F978856787E75C2761385BC5B70
:1010B00060968391857099905F75897AC484118652
:1010C000C2625D9D8C8F8A6F97915F738981C09298
:1010D0001579C7645B9690948C6E989E646F957E2C
:1010E000BAA81D6AC678518C8E8F8A6A919B6669F0
:1010F0008B77B0B11E4CC77B48858F8E8F718C9DCE
:1011000072648779A9BE213BC18A417C93878E6E28
:10111000819C735C7F7A9CBB342BBA984074958B0E
:101120008E70809F755C817D93C34220B7A0406C18
:10113000978994737BA17E64808392C85020ADA66A
:10114000456A94879576799F80617E7986C6601618
:101150009DB1516C998A9580789A7F677F7E86CD04
:10116000751194BC5C66968E9D89799587697D7DA5
:101170007AD1770C86BE5A55928397806D92896496
:10118000747F74C985027CC3584E928D93846D948C
:101190008C65718076C2950B73CB6850938C948864
:1011A0007695896C77897FC0A4196ACD725392981D
:1011B000978D79998F6B78897FB9B32959C67F54F8
:1011C0008B9795937E939572738577A6BD373CB8C0
:1011D0008F537C8C8A9278828B726A806F8EC64A1B
:1011E00023A39D4F6A858A93757B8F796678707F7C
:1011F000CA670D93B1555D888D9274758F7D647249
:101200007572C7830876BD60508189907D7692881B
:1012100073797E7AC4A91067CC77518195978475CC
:101220008F8A74768075BDB51A4FD189507F989B8F
:101230008D778E8F76787B71ACC6273ECD914C79B9
:1012400094918F7887907C757D68A2D03424BA9E63
:101250004B6F928D8E7A80897A747A688CCF4A1718
:10126000A5A651678F91907B7E897A757A6D8BCF19
:1012700065139AB35D618B949780798D7D757F6BD3
:1012800083D474128ABB675B8F9597837B92887631
:1012900081747BD4831785C66B5C939796887E9107
:1012A000836F7E757BC88F127BC16C568C918C834B
:1012B000768C806C847572CA8F1B6BBE6B53898D64
:1012C0009185798E8368807D70C19C1669BD73524B
:1012D00084918F8C78908B6B7C8273B7A61F5FC4D0
:1012E0007A5389958D8D7B8D8E6C78846AB3AF220D
:1012F00055C3834A86928A8C788B936F768C65A8C7
:10130000BF2040C788498092878974859467658C1F
:10131000689BC52A2FBC913E7795898B7485996D02
:10132000628A7597C73B28B99E4A6F998C8B7784E0
:101330009E786A8A7D93CE4F24B4A74C6A9B918C89
:101340007A809C7B64867D8ECC5F19A7B34F6599AC
:10135000908B81829F8269848187CB71169CC15B4F
:101360005F9C958F8280998366807F80CD80138B70
:10137000C55D559494907F7D9A87687E8079C885F5
:101380000A78C362498C91897B77988160747E6FFB
:10139000BA910966C169478694897E76948967788F
:1013A0008175B6A8185CCC7A4A839C8C8377928C22
:1013B0006C72807AB4B2224FCC884A82A396897D1F
:1013C00095926E74867FAEB82D42C28D48789F92FA
:1013D000867B92946F6D8375A0BB3733BC9949733C
:1013E000998F7F7288906A66837893BA4125AC9A08
:1013F0004565938C8174848F6A637D798ABB4F1DA8
:10140000A4A54B6095918575889478647D7C86C48D
:1014100062199BB95763999C8E7A879A816C7F81F8
:1014200089CA801690C9685D99A6988188A089723A
:10143000808482C8991973CE714F8DA19480819850
:101440008A7077827EB8AB2057CE85477FA1937D87
:101450007B928D746C7C76A7B32E33BB97446D9BC7
:10146000947E7789907671737D9DC04C22B4AA5486
:101470005F9B9B8174848C7E6B6E7693C45A1793AA
:10148000BD554E8C9D856B7C88806D69738EBF7752
:101490000D7EC167467FA38B777A8E87776C7389C1
:1014A000BD901460C378437A9F8F75798A887C6970
:1014B0007080B6A51F41C1924370A49D817C8B9121
:1014C000896D707AAFBE3C2FB7B451669FA38F7DF4
:1014D0008794917F737EA6CF631EA3BF655E99A795
:1014E000927B8191937F717597D27C1A7FC7714DE2
:1014F00082A09277788A8C836A6A84BF8E135EBEDC
:1015000084426FA094776E7F847F656078B19E1A65
:1015100039B8923F5E99997D6F7A8686666178A820
:10152000B63029B2A848599C9C8673788891756317
:1015300075A4C64D1CA4BC575498A28C79818A9579
:101540008466769FD1671593C3684E93A58F7D7F80
:1015500088918D696F98CE841775C7774A86A69251
:10156000828184898E6C608DC29B2255BF8A4C75A6
:10157000A093837E83808C746284B5AD363FB0A126
:1015800053659899887A81858F7A5F79A7B85327B0
:101590009BB060568E9F8A797C86897D60769DB9E6
:1015A000671D82B76948819D8A6F7781867C5C6BF5
:1015B00091BA7E1867BF7840749E8C7274858A8455
:1015C00064668EB1941D4DC18C436BA2957A77846D
:1015D000878F706889B9AF3441BFA84A67A5A387D0
:1015E0007A899093796483B2BA4030B5B1525A9EE9
:1015F000A18A78818A8F7B6479A8C151229FB657CE
:101600004E93A085787D89857A66719CC069188A19
:10161000BD684B89A38C797E8A857F6C718AC5856C
:10162000166CC17E427EA196797489848670707E24
:10163000BDA41951C7964B73A49E81798C8A837679
:10164000717EB9B62D3AC2A248639EA183768A897B
:101650008379677BACB9392CB8AD5259A0A283719C
:10166000888C7F7C6675A8C04C22A6BA5A5193A07C
:10167000857384887D7E6E6E9CC361148BBF6646C5
:1016800084A08A747B8883806E6989C5781072C44F
:1016900075447F9F91797A85857F6C6D80C18E0DB1
:1016A00062C9834276A693777589867D6D7180BE07
:1016B000A11659CF964471AFA27C78908D85727433
:1016C00080BEB92741C3A2455EA29F7D758A8F83E4
:1016D000787175AFC13727B3B152589DA28478870E
:1016E0008A7F787570A0C8511EA4BE5A4C90A989F3
:1016F00072858D837970738ECF6F0F87C86E3F842C
:10170000AA9072808B857D686F88C5971165D08699
:101710004270A9977E7B8684866A6E85ABB02B3D2E
:10172000B9A4485CA3987C74847F8872627D9CBB5A
:10173000491EA6B9534798A27F7886858B7E5E7B2B
:101740009ABC68128BC66A3A84AB87727A868A7EA4
:101750005E7794C1841072D484377CB698767E8C80
:10176000918864748EC59B125DDC9A376BB2A0774A
:10177000728596926A708CC0B01D3DCEAA3D58AB62
:10178000A57D73848C9371677FAEC22D22B8B94852
:101790004CA3A4827384828D785F769FC6460CA189
:1017A000C4553F92A885707E8089815F6C9ACF6610
:1017B0000384CF663582AA8F727B86888C69649297
:1017C000CE880865D6853976AE99767886858D700F
:1017D0006087CBA5144BD0A24067B2A57F7A8B88D7
:1017E0009478617DBEBA2733C3B54C56A4AB8476DA
:1017F0008382907C6172ABCA3F19AABC554994A9F7
:101800008A72817D877E5E6B95CD5C0B90C7683D4B
:1018100083A892707A848682616C92CD7C0D76CAA0
:101820007F3C72A8997377888388696C89C29D1AF6
:101830005EC89A4867A9A17D788D879377718BB729
:10184000B92F42BDAD5154A1A785778784917B61A3
:1018500080A8C2411FA7B6594190AA84717F7E8D8E
:101860007C5C7298C5541190C66A3986AC8D6E7BCB
:101870007E86805E6D8EC8730B7AC97A3878AE9496
:10188000747C868785687289C48D136DCD8D3E7298
:10189000AE99767B8B8585677186B896175DC69203
:1018A0004168AB9C79798883876F7285B8A31C5295
:1018B000C39F4565A69D82798E85877A7481B5B46C
:1018C0002A47C6A65063A5A2857C8E87817D757543
:1018D000B1B92E3EBCAF545EA1A588738B86767FCE
:1018E0007374AABD3630B3A85653939C8271888412
:1018F0007479756B99BE40229EB0574D8F9A857052
:101900008486727571708CBD531892B2634588A03D
:101910008B72808F757071728AC0691889BF744A22
:101920007FA295757D958278777F8CC9861F7CC54F
:10193000874C7BA89D7C7E968578737A88BF95249A
:1019400067C5964B6DA7A27D78968A7D757D86BA10
:10195000A32758BDA44F5FA1A4816D8D8A7D7076A9
:1019600082B2AA2945B6A54E5798A687708A8B7E63
:1019700070727EACAE303BB3AA525398A4856F8888
:1019800085766F6F76A3B33631A7AD554B8EA087A2
:10199000718B8B7D7A7C7CA2C04B31A3BC6B549144
:1019A000A68F7886897B77747B97BF5A2498B96E07
:1019B0004D86A08E75848E7B75757790C0601C8D6A
:1019C000BC744C80A2917180907C70757B83BC71DB
:1019D0001276B67A47739F9374788C796D687980A4
:1019E000B28A1B6BBA8F4F6BA19D7C7A90877D6BFF
:1019F000788CB697225CBE965163A19C77768D87D2
:101A00007C6D748AB2A62D51BFA55B60A2A68179B8
:101A1000958C8377768CAEB74140B6B566579AAE53
:101A20008B7C909285777284A5B9512EA5B86F51A1
:101A30008AA88B77828C81736C7998B95A1E89B485
:101A4000714677A38C6C767E7C74607191BC6F1745
:101A500074BC7F416B9F957172817F78656B89B98A
:101A6000821A63C19146619D9A77728685826B6FF7
:101A70008AB99B2457BD9D4F5B9DA0817587878345
:101A8000747083B2A12547B39F535697A38673887A
:101A90008982746E7EACB13342B5A85E5595A58B34
:101AA00077878D887B767FAAB73A3BB1B16557942B
:101AB000A78C7986897E78797AA5BB4538AEB064E3
:101AC0005992A68D778B8D7A737C7E9CBF432DA90E
:101AD000B367538EA08F77868E7D737C7C98BF4CC6
:101AE0002B9FB36857899D8B738389776C757D9421
:101AF000B94C259DAE6C54889C8D78828F796E761A
:101B00007D91BA57279BB56F55879C8F7781907BC6
:101B10006A737E8EBC5D2394B77451829C90747CF2
:101B20008F7B68717E8ABE651E8CB878527F9D94CB
:101B3000787B9484706E848CB76E1882B5794B78FC
:101B40009B9077789185716D818BB7791E78BB8575
:101B50005479A0997D7C90806E717F89B8852476B8
:101B6000BD8A56729F9B807992896E70828CB689ED
:101B70002468BD9158729C9F867C9189716E7F8B81
:101B8000B2942C64B8955D6A979A82788D8970704A
:101B9000828AB1952C59B39B5D6C979E8B768E870C
:101BA0006F697C82A0A12F4BAC9A5E5D8F98877382
:101BB0008788706D7E809EA73646ADA9665F939E2E
:101BC0008D758587736C787EA0AF3E40ABA5645D54
:101BD0008C9B8D788389776B7981A0A83C40A5A3E5
:101BE000625B8B998A76828D77687583A2A7403F66
:101BF000A1A7655C8F9B8E76848B7C697587A0AA74
:101C00003F43A2A8695C919B8E7887927D6D758514
:101C1000A3AA473DA0AA6D5C8B9D917A808D7C6CB8
:101C200070839CB150369CAF735A8D9C927B80918F
:101C30007C6D73849BB5553399B47459889D967A9D
:101C40008394846F748899B9582B93B17555829B8E
:101C500092787C91826A708498B65A298EB07555B4
:101C60007E96957B798D8069697E8EB258288EAF7D
:101C70007C557C93917A72877D68697F8FB15C24F3
:101C800087AC79557895957D788C80696C7F8DAD22
:101C9000602887AE7D597D989580798E826D708899
:101CA00094B76A2D8DB3835B819999827B928470FE
:101CB000748A98BA6E308BB5865F7F9A9C898094BF
:101CC0008975738896B3702B87B288637F9A9788DB
:101CD000788D84706B8593AF722982AD875F7B9717
:101CE0009587768B836F69828FAD77287BAB835D19
:101CF00075939484778A826F6B818EAE7A2777ABE7
:101D0000825971939485748A836F6A7B8BAC762237
:101D10006EAA86586F8F92836B80806C66788BAFCB
:101D20007F266DAC895A6B8C9289718488766C7928
:101D30008BB186266BB092627094989279878C7D75
:101D4000737D90B4952F66B398676D929A947A8458
:101D50008A79707D8DAF9E375CAE9C6A688F98984B
:101D60007E878B79747987A5A13549A59B676089A2
:101D700090927B7F8476717484A4AB3E41A6A56E5D
:101D8000608A97957D7D87787170809FB04B319B7D
:101D9000AA745A82999885838B7D77728098B662EF
:101DA0003090B184627E9397887F837B7C707F9232
:101DB000B3772C7CA98B647191988D7E837B7C702A
:101DC0007A8DAB8A2F6AAC9365668D968B7B807912
:101DD0007A707488A5953658A697685F85948A7836
:101DE0007976776E708299983B499A996B597D8F75
:101DF0008D797A7678736F7D98A1443F98A174604D
:101E0000809695827D797C7B73849DB35A4199AB92
:101E1000846582999B8D847F818679839BB76D3D94
:101E200090AF8E6A7B979890877E7B867C7D92B6FA
:101E3000773179A78C63708D948C817D737E7978EE
:101E400085B0882E67A492656688918C7D787277BC
:101E5000767380AC9A3856A49E6D5F82928F807A9A
:101E6000757A776F7AA2A13D469BA2765E7C9090B0
:101E7000817A76797B737A9FAB4F3E94A4785E78B3
:101E80009193857F79777A777896AD5A3A89A6804B
:101E9000637891978B817E7A827B7595AE6A398063
:101EA000A68B6B748F9990827F7A85817C91B783A2
:101EB0003F79AA956E738C9691858178828379811A
:101EC000B0913868A7976F6D899292877E767C7EF5
:101ED000767EAA9A3F59A09A7366818F8E847E7609
:101EE0007B7F767D9EA3494B989C78617E908F87FF
:101EF0007F7777827A7A98A8553F8D9B7960788C26
:101F000090888078727F71718BA35F34849C7C6130
:101F10006F8B8A857C726F77767489A86E377BA405
:101F2000846472888B89837B737E7E7988AA8038EB
:101F300072A78E72799094938B827B7F858089B112
:101F40008A4270A59572758B90958C847879817B87
:101F500083A88F3F63A0926F6E868B908A8275767E
:101F6000807B7D9E9541569C96756B858C8F8C8869
:101F70007B74817D81A0A556549CA07F6B83919238
:101F80008E887B747D7C8298A65D47929F846A7D53
:101F90008E8E91867C7379787D92A9693C839C8131
:101FA0006873878487837A7173757889A3733874AB
:101FB0009B85686D85858A867D7273777A88A38410
:101FC0003C689B8F736C85898D877E747374727F78
:101FD0009C8C3F579291776881898E8C8174717542
:101FE000727F999E54519296816A7C888B918478F5
:101FF000757B797C95A66847869E8871798A9198C9
:102000008E827F837E7F93AF7D487DA0957B7E907F
:10201000929C90827F8480808FAD944F729C947F3D
:1020200074838794917D79807A77879E9D56548DAD
:102030009182707A878C907C747B726D788E9C6CA8
:102040004B7A9888747683878F85757B78717987CA
:102050009E854D5D878C756C7A828F8A76787D6ED1
:10206000727F929B5E4F7F908469727F858C7877B8
:10207000816F6D7D899F7F4B6A918C766E7F878F94
:1020800086798A7D6D7E869B9C64598A9985747E4B
:10209000878D8F7C8A886D76848CA18557759895FD
:1020A000817C8A8A8F8789947A6E8287969D63590C
:1020B000838F83727E858485869482676E81889AF9
:1020C0008152708E897A79837E8088918A70657951
:1020D000858F9669598391847C80858088969180CC
:1020E000696F868B9A8C606C8F8D7E7B807A7B93F8
:1020F000978875697D8A8E987C5F778C867E7F7DD8
:102100007486998E7C68687E8486916F5E808A81F1
:102110007B7A73748E96857567718381908A606E01
:102120008C8884817C77839A938071697D8785957B
:10213000795F7B87837D7775718494826E646A7F13
:102140007F89926A6687857D7A77747894957E74A4
:102150006A768A83918A647388827F7B7A78849F87
:10216000917C75708488879E8066878D8584827F48
:102170007994A0887C74788A848E98716C87858223
:1021800083807A809B967E746C7A827D948C657352
:10219000847E807C787282998775726C797C819755
:1021A0007C677C8081807875748D98817D75728064
:1021B0007F8F97736C7C80837F7C77819B93817EFC
:1021C0006F717B7D948F6B70818586837D77889A14
:1021D0008B81796A727D859B8C6B72848783807812
:1021E000748C98877F7167757F8C9D8268798685EE
:1021F000837C727792958881706C7D83909B7967E0
:102200007E8687887D747E9593857D6F6E828995A5
:1022100098736980848683767080968E8279696DE2
:102220007F84938D67697E7F8480717085978A7FB4
:10223000766771858A998C69738484897E707589C3
:1022400094847A6E6575858B9681667480828578B4
:1022500070798C92857B6E6876838C927A657480B7
:10226000838477717C9191837B6A687E8A8F937770
:1022700066798388877874809394867D6F6F858E66
:1022800093957A7181888E897A7986979284796D0F
:102290007488919490796B79858782767589999104
:1022A00081756D7282888A8D7A6D7D88877E717462
:1022B00085958E7F766F708086888D7C6C7B83831E
:1022C0007D72788892897D767172828A8A927E6D1B
:1022D0007E858481757B8B918D857F7470808788E6
:1022E00092836E7680837E767C858C88837C70700A
:1022F000828788958971707B807A747980878986D6
:102300007C6A68767B7D8C8B726B7B827B77777A3D
:102310007F84877D6D6C75797E8E927B6E7A827FED
:102320007C7C7D81888C827572757C838D938370B3
:102330007580807F7F7F838A908A7A73747B828B9B
:10234000948B7C777C8484828283899390837A784F
:10235000797F8B9190887E7F868786817F838B9023
:10236000877B78777E8A8C928F7E75808783818049
:102370007F848F897D7974747E83848C8575747E67
:102380007F7E7D7A7C88857875726F737B7E83878C
:102390007E74787F7F7E787A80817A77757473789F
:1023A000808087887B747A7D7D7C7B7E82817C7E49
:1023B0007973757D7F868F8B7C777B7B7D7A787E4A
:1023C000817F83837874797C7F898E857C79797E1F
:1023D000817C7D818184877E7678787A838A8C8CF3
:1023E000837A81867F7C807F828987807D7C787CF0
:1023F00083898F8D847F80807B7E848283898680A1
:102400007F7B777B82888A8B867D7B7F7C7B8080CD
:10241000818788837D7871747D83878C8779777DC8
:102420007C7B7F81818686837E7570767F85898EB1
:102430009081777A7C7B7E7F81888A86807B7676A6
:102440007E838790938D7E787F7B77808180868561
:10245000807C7874777F82878D8C7D747573727AB7
:102460007E7A81837C7775716F757C7E848A8475B2
:102470006E7170737D7C7A83827A7B7A73737B80D2
:102480008590918A7E7476797C83848286847F802D
:102490007B7072797F828A94908378787B7C80814C
:1024A00080808182817E79797D84868A9394897EF9
:1024B0007E807E858B8483868481807B777C838706
:1024C0008891958D817D7D7E818381818286837DCA
:1024D0007B7A797B8485868D8C827B797A7B7D8003
:1024E0007E7C7E7B7473726F727C7D808A8A817938
:1024F0007373787D807E7D807E7A7B7A74767D8131
:10250000838D938C827A787A7B7E82807F817F7DB7
:102510007E7972788587879091867C7A79787D82BA
:102520007E7F848079787973747E84838B958F83A2
:102530007B77777B7F7D7D807F7E7C787270747EF9
:1025400084858C948F847E7976797F808484817D64
:102550007A797874768085858F938A7F7B78778285
:10256000878384857F7A78756F707B899093969442
:102570008C867F74757C7C80878B8782807B777963
:102580007C7F83888D8E8B8787847D7C7E7E818116
:102590007C7A797A7A7B7B7C81878B8C8B8B888128
:1025A0007D7C7D7F8284827D797774727374777D80
:1025B0008284838484817F7D7A787879797978764A
:1025C000737376787A7C7F84878686868482817F1F
:1025D0007C7976797B7B7C7D7D7C7D7D7F80828133
:1025E0008387868684807E7B7874727375777C801F
:1025F0008182807D80818284878887898A8684829F
:1026000080807B76787A7B7E8081818080828484E2
:10261000868D91949593918F8984817E7A7B808336
:1026200085878784807F7F8084898D9092928C8635
:10263000827E7A797878787879787878767477790C
:102640007A7D818484827E7A7775747678787776DD
:1026500075737272727577787B7C7F8083838280DA
:102660007D7F7F7E7C7A787675767676797C7D7EC6
:102670007E7E808386878787888888878684818016
:102680007F7C7A7C7D7E7E7E7F7F8081828487884E
:10269000878889888887858382817E7C7B7C7B7A1A
:1026A0007C7D7E7F81828386888A8B8B88868583EA
:1026B00082817F7F7E7D7C7979787978797A7C7E5A
:1026C0007E80818184878787858280807E7C787701
:1026D0007878787B797A7C7E808185868584848011
:1026E0007F7F7F7F7F7F7F7E7E7C7A787776787929
:1026F0007B7E8083818183848381828382828382C3
:10270000828183807F7F7E7F7E7F7F8080818280C9
:102710008081808081817F7E807F7E7E7F808081BE
:1027200080818181807C7A79797A7B7B7D7D7F7FD6
:102730007F7E7F808081808081817F7F7F7F80819D
:10274000818080807F8081808080807F7F7F80818A
:102750007F80808081838383838282838381818160
:10276000808080818280807F7E7D7E7C7C7C7E817B
:1027700081828281818281807F7F8081828281804B
:102780007F7D7B7979797A7C7E8081848687868655
:102790008381807F7F8081828282828180807F7F2F
:1027A0007F7D7E7E8081807F7E7E7F7E7D7E7F7E40
:1027B0007C7C7C7C7B7B7C7D7F7E7E7E7C7A7A7A57
:1027C0007A7B7C7D7E7E7E7C7B7C7C7C7D7F7F7E3D
:1027D0007E7F7D7D7F8081828180818183838484EF
:1027E00084848485858585848383858584848484A5
:1027F00082818283848485848584828382828182AB
:102800008180808180807F7E7E0011241FBECFEF7B
:10281000D0E1DEBFCDBF11E0A0E0B1E0ECECFDE324
:1028200000E00BBF02C007900D92A030B107D9F7AE
:1028300021E0A0E0B1E001C01D92A834B207E1F7A9
:10284000BED40C94E41E0C940000ECE7F0E0908100
:10285000907C8770892B8083EAE7F0E08081806438
:102860008083808186FDFDCF809178002091790062
:1028700090E0922B089582E0E8CF089583E0E5CFC1
:102880000895CF93C82F7CD380EC87D380E085D385
:102890008C2F83D37ED3CF9108950F931F93CF9323
:1028A000DF936115710559F08C01EC01060F171FBC
:1028B000FE018491E6DF2196C017D107C9F7DF91A9
:1028C000CF911F910F9108958DB383738DBB8DB1FF
:1028D0008F738DB98AB1837F8AB98EB1806C8EB9BE
:1028E0008BB18C608BB91092000110920101109293
:1028F000020110920301109204011092050110923E
:10290000060110920701EAE6F0E08081806580838D
:10291000E9E6F0E08081806580838DB38C6C8DBBAF
:1029200008951F920F920FB60F9211248F939F93C9
:10293000AF93BF938CB186FF2AC08823A4F4809103
:10294000000190910101A0910201B0910301019653
:10295000A11DB11D8093000190930101A09302017C
:10296000B09303013DC08091000190910101A091BD
:102970000201B09103010197A109B10980930001FF
:1029800090930101A0930201B093030129C0882311
:10299000A4F48091000190910101A0910201B091F5
:1029A00003010197A109B1098093000190930101EE
:1029B000A0930201B093030113C080910001909194
:1029C0000101A0910201B09103010196A11DB11D69
:1029D0008093000190930101A0930201B093030141
:1029E000BF91AF919F918F910F900FBE0F901F904D
:1029F00018951F920F920FB60F9211248F939F93E9
:102A0000AF93BF938CB1882354F586FF14C0809197
:102A1000000190910101A0910201B0910301019781
:102A2000A109B1098093000190930101A0930201D3
:102A3000B09303013DC08091000190910101A091EC
:102A40000201B09103010196A11DB11D8093000107
:102A500090930101A0930201B093030129C086FF66
:102A600014C08091000190910101A0910201B091E8
:102A700003010196A11DB11D8093000190930101F6
:102A8000A0930201B093030113C0809100019091C3
:102A90000101A0910201B09103010197A109B109BF
:102AA0008093000190930101A0930201B093030170
:102AB000BF91AF919F918F910F900FBE0F901F907C
:102AC00018951F920F920FB60F9211248F939F9318
:102AD000AF93BF9389B182FF2AC083FF14C0809156
:102AE000040190910501A0910601B09107010196A2
:102AF000A11DB11D8093040190930501A0930601CF
:102B0000B09307013DC08091040190910501A0910F
:102B10000601B09107010197A109B1098093040151
:102B200090930501A0930601B093070129C083FF8C
:102B300014C08091040190910501A0910601B0910B
:102B400007010197A109B109809304019093050140
:102B5000A0930601B093070113C0809104019091E6
:102B60000501A0910601B09107010196A11DB11DBB
:102B70008093040190930501A0930601B09307018F
:102B8000BF91AF919F918F910F900FBE0F901F90AB
:102B900018951F920F920FB60F9211248F939F9347
:102BA000AF93BF9389B183FF2AC082FF14C0809185
:102BB000040190910501A0910601B09107010197D0
:102BC000A109B1098093040190930501A093060126
:102BD000B09307013DC08091040190910501A0913F
:102BE0000601B09107010196A11DB11D809304015A
:102BF00090930501A0930601B093070129C082FFBD
:102C000014C08091040190910501A0910601B0913A
:102C100007010196A11DB11D809304019093050148
:102C2000A0930601B093070113C080910401909115
:102C30000501A0910601B09107010197A109B10911
:102C40008093040190930501A0930601B0930701BE
:102C5000BF91AF919F918F910F900FBE0F901F90DA
:102C60001895AF92BF92CF92DF92EF92FF920F939F
:102C70001F93CF93DF93CDB7DEB72B970FB6F894A2
:102C8000DEBF0FBECDBF6C01E6D0B82EC601E0D0CE
:102C9000A82EC601BDD0D82E84E1D81639F086E121
:102CA000D81681F083E1D81212C007C01AE9E12ECC
:102CB00012E0F12E00E010E00DC0DDDD7C0100E04F
:102CC00010E008C0DBDD7C0100E010E003C0E12C77
:102CD000F12C87012D2D4A2D6B2DCE0101966BD045
:102CE000CE0101962BD52B960FB6F894DEBF0FBE02
:102CF000CDBFDF91CF911F910F91FF90EF90DF90AB
:102D0000CF90BF90AF900895FF920F931F93CF93F2
:102D1000DF93CDB7DEB729970FB6F894DEBF0FBEAD
:102D2000CDBF8C019BD08D309105A1F01CF4039791
:102D300041F035C0853F910581F1873F9105B1F0A4
:102D40002EC0C801F7D0F82EC801E9D0BC018F2DE4
:102D5000E7D225C0C801F1D0F82EC801E8D0682F0D
:102D6000880F770B8F2D90E07CD619C0F8019481E5
:102D7000258186819F83988799872C832D838E83D5
:102D800089838A838B83AE014F5F5F4FBE016C5F87
:102D90007F4FCE010796AFD102C0C80162DF2996EE
:102DA0000FB6F894DEBF0FBECDBFDF91CF911F915C
:102DB0000F91FF900895BF92CF92DF92EF92FF9212
:102DC0000F931F93CF93DF93EC01B22E670178012D
:102DD00081E021D09983888388E08A838E010D5F0A
:102DE0001F4F66EFC80127D0C80FD91FBB829C01B7
:102DF0002F5F3F4FB701A601C80134D0DF91CF91BB
:102E00001F910F91FF90EF90DF90CF90BF900895AA
:102E1000FC01868108956F7090E4699FB0011124D0
:102E20004F73642B8170382F330F330F20E0CB01A9
:102E3000822B932B0895CF93DF93EC0168835CD5AD
:102E4000898357D58A8383E090E0DF91CF910895FD
:102E5000FC0185810895FC0184810895FC01838132
:102E600090E00895FC01E20FF31F708361835283A9
:102E700043830895CF92DF92EF92FF92CF93DF9337
:102E8000141615069CF47723A4F0EA01C61BD70B91
:102E90002196C530D10514F0C4E0D0E0DD2314F450
:102EA000C0E0D0E01C161D0634F02DC0C4E0D0E018
:102EB00002C0C4E0D0E0DC01A60FB71F9E01215084
:102EC0003109220F331F220F331F220F331FE0E07F
:102ED000F0E0C12CD12C76014D9150E0022E02C0C1
:102EE000440F551F0A94E2F7052E000C660B770B72
:102EF000C42AD52AE62AF72A319628503109EC1738
:102F0000FD0754F303C0C12CD12C7601C701B601D3
:102F1000DF91CF91FF90EF90DF90CF90089542E046
:102F200050E061E070E00396A5DFCB010895FC015D
:102F300085810895FC0186810895FC0184810895AE
:102F40001092B9009C0140E050E060E87EE380E030
:102F500090E0FBD6BA01A9014051510961097109FC
:102F6000DB01CA011AF40196A11DB11DB595A79503
:102F7000979587958093B80084E08093BC0008956E
:102F800084EA8093BC00ECEBF0E080818823ECF7CE
:102F9000089584E98093BC0008958093BB0084E881
:102FA0008093BC00ECEBF0E080818823ECF708957F
:102FB000811102C084E801C084EC8093BC00ECEB7A
:102FC000F0E080818823ECF78091BB000895833086
:102FD000E0F46430D0F494B1906C94B99B9A880F6B
:102FE00023E030E0082E02C0220F331F0A94E2F7DC
:102FF000209590910801292370E002C0660F771F89
:103000008A95E2F7622B609308010895CF93DF93CE
:103010002091080121110AC0A39885B18F7385B949
:1030200067C04F5F5F4F6F5F7F4F0BC061E070E025
:1030300040E050E0DC01A370BB27C8E0D0E4817021
:1030400099272091080130E0FA01EE0FFF1F02C01E
:1030500035952795EA95E2F72370213091F028F015
:10306000223019F12330A9F13FC04115510511F467
:103070002E98D7CF4130510511F42F98D2CFA39875
:1030800033C01097A9F54115510521F425B12D271D
:1030900025B9C7CF4130510521F425B1205825B9B4
:1030A000C0CF24B32C2724BB1FC0009709F54115BE
:1030B000510521F425B12D2725B9B3CF4130510554
:1030C00021F425B1205825B9ACCF24B32C2724BB3B
:1030D0000BC04115510511F42E9AA3CF4130510573
:1030E00011F42F9A9ECFA39A633071050CF499CFF7
:1030F000DF91CF910895CF93DF93F894FC01C62F11
:10310000D72FA42FB52FBC016D5F7F4F319149910F
:103110002D9198E0542F5078A49A440F552309F428
:1031200036C00000000000000000000000000000A9
:10313000A4980000915071F798E0432F4078A49A2A
:10314000330F442309F42AC00000000000000000EF
:10315000000000000000A4980000915071F798E072
:10316000322F3078A49A220F3323F9F000000000A8
:1031700000000000000000000000A4980000915032
:1031800079F7E617F70709F0C1CF789415C0A4982E
:1031900000000000000000000000CBCFA498000059
:1031A0000000000000000000D7CFA498000000003D
:1031B000000000000000E2CFDF91CF910895CF938F
:1031C000DF93CDB7DEB761970FB6F894DEBF0FBEC1
:1031D000CDBF80E18AB98BB980E484B985B990EF1D
:1031E00092B99C9A15B889838A838B831C821D822D
:1031F0001E82B2D48DE491E0A3DEF894AE014C5F60
:103200005F4FBA01CE01019676DF2FEF81EE94E099
:10321000215080409040E1F700C0000065E777E270
:1032200084E990E03ADBAE014C5F5F4FBA01CA011E
:1032300062DF80E026DB1BB878949FE088E10FB660
:10324000F894A895809360000FBE9093600080B1C1
:1032500090E080959095959587959595879595950E
:103260008795959587958F70682F70E087E090E03F
:103270005DD2F2D31ED00F2EF8E2CF2ED12CE12C4E
:10328000F12CF02DCE010796A1D2892B79F463E0C1
:1032900080E09DDE83D4A701960135D5C901B6DE55
:1032A000CE01079631DD60E080E091DE62D0A89526
:1032B000E9CFCF93DF938DB188638DB984B18863F3
:1032C00084B9C9E0D1E01982188260E070E083E03F
:1032D00016D31B821A8260E070E084E010D31D8256
:1032E0001C8260E070E085E00AD380E688B9ECDA01
:1032F000DF91CF910895833090F48D5F21E030E02D
:1033000002C0220F331F8A95E2F7611105C085B113
:103310002095282325B9089585B1282B25B908952E
:10332000CF93DF93833010F5262F372F21309CEF7A
:10333000390714F421E03CEFC82FD0E0FE01EE0F76
:10334000FF1FE75FFE4F211584E0380714F02FEFD1
:1033500033E03183208322D4CC0FDD1FCC0FDD1F5F
:10336000C15FDE4F688379838A839B83DF91CF912E
:1033700008958F929F92AF92BF92CF92DF92EF9279
:10338000FF921F93CF93DF9300D01F92CDB7DEB78C
:1033900086B18074898386B180728A8386B18B837B
:1033A0000F2EFFE0CF2EF1E0DF2EF02D0F2EF9E0F3
:1033B000EF2EF1E0FF2EF02D10E0F0D3F60181901A
:1033C0009190A190B1906F01DC01CB01881999090E
:1033D000AA09BB09813D9740A105B10530F0F7016D
:1033E00011821082A12CB12C1BC0F701A080B180EA
:1033F000BB20B4F4111106C0898181110AC0A12C2F
:10340000B12C07C0113029F48A81811102C0A12C8E
:10341000B12C61E0812F6FDFB194A194B10803C09A
:1034200060E0812F68DFB50183E0810F68D21F5F04
:10343000F2E0EF0EF11C133009F0BFCF0F900F90A8
:103440000F90DF91CF911F91FF90EF90DF90CF9081
:10345000BF90AF909F908F900895883080F4EEEDEC
:10346000F0E0408121E030E0B90102C0660F771F33
:103470008A95E2F7CB018095842380830895EFED50
:10348000F0E04081885021E030E0B90102C0660FD1
:10349000771F8A95E2F7CB01809584238083089576
:1034A000883078F4EEEDF0E0408121E030E0B901C1
:1034B00002C0660F771F8A95E2F7CB01842B8083C9
:1034C0000895EFEDF0E04081885021E030E0B9014F
:1034D00002C0660F771F8A95E2F7CB01842B8083A9
:1034E00008951F920F920FB60F9211240BB60F92F0
:1034F0002F933F934F935F936F937F938F939F93FC
:10350000AF93BF93CF93EF93FF93C091ED00809162
:10351000EC00807F803FA1F18091EC0082958F705C
:1035200090E1899F900111242093ED009091EE008D
:1035300096FF08C0EEEEF0E0908110821092EF004E
:10354000AFDF22C090911E019F5F90931E01E82F74
:10355000E695E695E695F0E0E45EFE4F9081482F13
:10356000477021E030E002C0220F331F4A95E2F796
:10357000292B2083EEEEF0E0908110826EDF04C0F4
:10358000EAEDF0E080818083C093ED00FF91EF9140
:10359000CF91BF91AF919F918F917F916F915F91EB
:1035A0004F913F912F910F900BBE0F900FBE0F9038
:1035B0001F9018959C01332722953295307F322732
:1035C000207F32272093ED009C01215031092230C9
:1035D000310540F480911F0120E4829FC001112435
:1035E0008F630FC00397029750F480911F0120E46E
:1035F000829FC001112420911B01822B02C08FE306
:1036000090E01092F4001092F5001092F0001092E9
:10361000F100282F2295220F207E2093F200887F30
:1036200097709695879596958795969587958093AB
:10363000F30080EE8093F6008FE78093F700089503
:10364000DF92EF92FF920F931F93CF93DF93E8EDFA
:10365000F0E090819160908340931F0120931B01C3
:103660002FEF31EE94E0215030409040E1F700C060
:1036700000008093E2007093E3006093E40080EB2D
:103680008093DB008FEF8093E500ECE1F1E01182A5
:103690001082C0E0D0E00FEE10E00F2EFEEEEF2E15
:1036A000F12CF02D6894DD24D7F8C53050F4F701E3
:1036B00080811082CE017EDFF801D0828C2FF0DE77
:1036C00002C0F80110822196CF30D10571F7109217
:1036D0001E0182E08093D800DF91CF911F910F915E
:1036E000FF90EF90DF9008951092ED008091EF0031
:1036F000807C99F021E030E0ADEEB0E0EFEEF0E05C
:10370000822FA90142955295507F5427407F54271C
:103710004C939081907C19F4089580E008952F5F78
:103720003F4F2F30310561F78FEF08959B01AC01BA
:1037300063E174E08EE190E083CF0895CF93DF934F
:10374000EC01D2DF8F3FE9F190E1899F90011124D4
:103750002093ED00EEEEF0E0908110829A819F7050
:103760009093EF009A81992369F0FE01339690E0DF
:10377000AAEFB0E021912C939F5F2A81921710F459
:103780009830C1F71092F0001092F1009881929554
:10379000990F907E9093F20028813981287F3770AD
:1037A0003695279536952795369527952093F300DE
:1037B000EFEEF0E090819064908372DE80E090E024
:1037C00002C082E090E0DF91CF9108951F93CF93E4
:1037D000DF93009709F481C020911E01222309F490
:1037E0007FC01092ED0020911C0120FD25C021E03A
:1037F00030E0ADEEB0E0122FA90142955295507F16
:103800005427407F54274C9323FB662760F970E0D0
:10381000FB01E45EFE4F408150E0E22FE77002C002
:1038200055954795EA95E2F740FD07C02F5F3F4F5A
:103830002F30310501F757C010E02091EF002F70B5
:10384000FC0122833091F2004091F30032953695CD
:10385000377050E0440F551F440F551F440F551F3C
:10386000432B51834083222391F03396215030E043
:103870002C5F3F4F280F391F0B96AAEFB0E04C91F9
:103880004193E217F30719F08E179F07C1F7F894D9
:1038900080911E01815080931E017894812F90E0C9
:1038A00089DE812FFDDD13FBFF27F0F9CF2F80E0AC
:1038B000D82FC45EDE4F2881177081E090E002C0EF
:1038C000880F991F1A95E2F780958223888380E8F4
:1038D0008093EF0080E090E008C082E090E005C0B7
:1038E00081E090E002C081E090E0DF91CF911F91F4
:1038F000089580911B01089580911F0108957370B0
:10390000843071F08530B1F08330E9F4E0E9F0E023
:1039100080818068808370939900609398000895F7
:10392000E0E9F0E080818062808370939B00609387
:103930009A000895E0E9F0E08081886080837093C8
:103940009D0060939C000895CF93DF93D82FC62FDE
:1039500017DB80E822DB8D2F20DB8C2F1EDB19DBB1
:10396000DF91CF91089560E880E0EEDF8FE39CE97E
:103970000197F1F700C0000060E180E0E5DF8FE330
:103980009FE10197F1F700C0000060E080E0DCDF1C
:103990008FE39FE10197F1F700C0000008950F93B6
:1039A0001F93CF938C01ECDA81E8F7DA80E0F5DA47
:1039B000E7DA80E0FDDAC82FECDA6C2F6F76606111
:1039C00080E0C2DF8FE39FE10197F1F700C00000C4
:1039D000980140E050E067ED77E180E090E0B5D1FC
:1039E0006FEF620F8EEFB0DF6C2F80E0ADDF8FE303
:1039F0009FE10197F1F700C000006C2F606880E044
:103A0000A3DF8FE39FE10197F1F700C00000CF91A2
:103A10001F910F9108950F931F93CF93DF93EB01A5
:103A2000082F000F000F609586E0800F8DDF8FEF6D
:103A30009FE08C1B9D0B692F87E0800F85DF802F17
:103A40006C2F885F81DF6D2F89E0800F7DDFDF9134
:103A5000CF911F910F91089586DF82E390E09FCF71
:103A600008959C01643B710514F063EB70E0161639
:103A7000170614F061E070E02330310568F433E696
:103A8000369FC001379F900D11246CEA70E028D159
:103A90006A597F4F822FBFCF08951F920F920FB6A2
:103AA0000F9211240BB60F922F933F934F935F9376
:103AB0006F937F938F939F93AF93BF93EF93FF93F6
:103AC0008091210190912201A0912301B0912401C4
:103AD0000196A11DB11D8093210190932201A09315
:103AE0002301B09324018091210190912201A091A2
:103AF0002301B091240187709927AA27BB27892B1E
:103B00008A2B8B2B49F48091210190912201A09165
:103B10002301B09124017ADA809121019091220150
:103B2000A0912301B091240180FD03C081E0809326
:103B30002001FF91EF91BF91AF919F918F917F9164
:103B40006F915F914F913F912F910F900BBE0F900E
:103B50000FBE0F901F90189583E484BD8BE1809376
:103B6000810093E09093800020E137E23093890058
:103B700020938800109285001092840081E0809349
:103B80006F00909390008093910010922101109209
:103B9000220110922301109224010895CF92DF9206
:103BA000EF92FF9220918400309185008091210155
:103BB00090912201A0912301B0912401880F991FB7
:103BC000AA1FBB1F880F991FAA1FBB1F880F991F11
:103BD000AA1FBB1F6C017D01CC0CDD1CEE1CFF1C61
:103BE000CC0CDD1CEE1CFF1CC80ED91EEA1EFB1EF1
:103BF00036952795A3E1B3E8C4D00024880F991F18
:103C0000001C880F991F001C892F902DA701960179
:103C1000280F391F411D511DCA01B901FF90EF90B6
:103C2000DF90CF9008951F920F920FB60F9211243C
:103C30000BB60F928F93EF93FF93809136018131F2
:103C400020F080E1809336010CC0E091360181E0E4
:103C50008E0F80933601F0E08091C600E95CFE4F44
:103C60008083FF91EF918F910F900BBE0F900FBE4D
:103C70000F901F9018951F920F920FB60F9211245C
:103C80000BB60F928F939F93EF93FF93E0914701B1
:103C900081E08E0F80934701F0E0EB5DFE4F808165
:103CA0008093C6009091470180913501981720F4C8
:103CB00080914701813148F0E1ECF0E080818F7D17
:103CC00080831092350110924701FF91EF919F91EF
:103CD0008F910F900BBE0F900FBE0F901F901895F5
:103CE00097FB072E16F4009406D077FD08D058D025
:103CF00007FC05D03EF4909581959F4F08957095EF
:103D000061957F4F0895A1E21A2EAA1BBB1BFD01EE
:103D10000DC0AA1FBB1FEE1FFF1FA217B307E407AA
:103D2000F50720F0A21BB30BE40BF50B661F771F02
:103D3000881F991F1A9469F76095709580959095E2
:103D40009B01AC01BD01CF010895052E97FB16F430
:103D500000940FD057FD05D0D6DF07FC02D046F403
:103D600008C050954095309521953F4F4F4F5F4F7C
:103D7000089590958095709561957F4F8F4F9F4FD7
:103D80000895A29FB001B39FC001A39F700D811D34
:103D90001124911DB29F700D811D1124911D089554
:103DA000AA1BBB1B51E107C0AA1FBB1FA617B70761
:103DB00010F0A61BB70B881F991F5A95A9F780957D
:0C3DC0009095BC01CD010895F894FFCF50
:00000001FF
